{
  "_format": "hh-sol-artifact-1",
  "contractName": "Exchange",
  "sourceName": "contracts/Exchange.sol",
  "abi": [
    {
      "inputs": [
        {
          "internalType": "contract IERC20",
          "name": "_token",
          "type": "address"
        },
        {
          "internalType": "uint256",
          "name": "_price",
          "type": "uint256"
        }
      ],
      "stateMutability": "nonpayable",
      "type": "constructor"
    },
    {
      "inputs": [
        {
          "internalType": "uint256",
          "name": "amount",
          "type": "uint256"
        }
      ],
      "name": "buy",
      "outputs": [],
      "stateMutability": "payable",
      "type": "function"
    },
    {
      "inputs": [],
      "name": "giveExchangeTokens",
      "outputs": [],
      "stateMutability": "nonpayable",
      "type": "function"
    },
    {
      "inputs": [
        {
          "internalType": "uint256",
          "name": "amount",
          "type": "uint256"
        }
      ],
      "name": "sell",
      "outputs": [],
      "stateMutability": "payable",
      "type": "function"
    },
    {
      "inputs": [],
      "name": "token",
      "outputs": [
        {
          "internalType": "contract IERC20",
          "name": "",
          "type": "address"
        }
      ],
      "stateMutability": "view",
      "type": "function"
    },
    {
      "inputs": [],
      "name": "viewApproved",
      "outputs": [
        {
          "internalType": "uint256",
          "name": "",
          "type": "uint256"
        }
      ],
      "stateMutability": "view",
      "type": "function"
    },
    {
      "inputs": [],
      "name": "viewBalance",
      "outputs": [
        {
          "internalType": "uint256",
          "name": "",
          "type": "uint256"
        }
      ],
      "stateMutability": "view",
      "type": "function"
    },
    {
      "inputs": [
        {
          "internalType": "uint256",
          "name": "amount",
          "type": "uint256"
        }
      ],
      "name": "viewPrice",
      "outputs": [
        {
          "internalType": "uint256",
          "name": "",
          "type": "uint256"
        }
      ],
      "stateMutability": "view",
      "type": "function"
    }
  ],
  "bytecode": "0x60806040523480156200001157600080fd5b50604051620011f9380380620011f9833981810160405281019062000037919062000180565b816000806101000a81548173ffffffffffffffffffffffffffffffffffffffff021916908373ffffffffffffffffffffffffffffffffffffffff1602179055508060018190555033600260006101000a81548173ffffffffffffffffffffffffffffffffffffffff021916908373ffffffffffffffffffffffffffffffffffffffff1602179055505050620001c7565b600080fd5b600073ffffffffffffffffffffffffffffffffffffffff82169050919050565b6000620000f982620000cc565b9050919050565b60006200010d82620000ec565b9050919050565b6200011f8162000100565b81146200012b57600080fd5b50565b6000815190506200013f8162000114565b92915050565b6000819050919050565b6200015a8162000145565b81146200016657600080fd5b50565b6000815190506200017a816200014f565b92915050565b600080604083850312156200019a5762000199620000c7565b5b6000620001aa858286016200012e565b9250506020620001bd8582860162000169565b9150509250929050565b61102280620001d76000396000f3fe6080604052600436106100705760003560e01c8063d96a094a1161004e578063d96a094a146100e2578063e4849b32146100fe578063e865579f1461011a578063fc0c546a1461015757610070565b80633aebbd98146100755780633ff1e05b1461008c578063c3e586de146100b7575b600080fd5b34801561008157600080fd5b5061008a610182565b005b34801561009857600080fd5b506100a1610366565b6040516100ae91906109c2565b60405180910390f35b3480156100c357600080fd5b506100cc610408565b6040516100d991906109c2565b60405180910390f35b6100fc60048036038101906100f79190610a0e565b6104ac565b005b61011860048036038101906101139190610a0e565b610674565b005b34801561012657600080fd5b50610141600480360381019061013c9190610a0e565b61096e565b60405161014e91906109c2565b60405180910390f35b34801561016357600080fd5b5061016c610985565b6040516101799190610aba565b60405180910390f35b600260009054906101000a900473ffffffffffffffffffffffffffffffffffffffff1673ffffffffffffffffffffffffffffffffffffffff163373ffffffffffffffffffffffffffffffffffffffff16146101dc57600080fd5b60008060009054906101000a900473ffffffffffffffffffffffffffffffffffffffff1673ffffffffffffffffffffffffffffffffffffffff1663dd62ed3e33306040518363ffffffff1660e01b815260040161023a929190610af6565b602060405180830381865afa158015610257573d6000803e3d6000fd5b505050506040513d601f19601f8201168201806040525081019061027b9190610b34565b905060008060009054906101000a900473ffffffffffffffffffffffffffffffffffffffff1673ffffffffffffffffffffffffffffffffffffffff166323b872dd3330856040518463ffffffff1660e01b81526004016102dd93929190610b61565b6020604051808303816000875af11580156102fc573d6000803e3d6000fd5b505050506040513d601f19601f820116820180604052508101906103209190610bd0565b905080610362576040517f08c379a000000000000000000000000000000000000000000000000000000000815260040161035990610c80565b60405180910390fd5b5050565b60008060009054906101000a900473ffffffffffffffffffffffffffffffffffffffff1673ffffffffffffffffffffffffffffffffffffffff166370a08231336040518263ffffffff1660e01b81526004016103c29190610ca0565b602060405180830381865afa1580156103df573d6000803e3d6000fd5b505050506040513d601f19601f820116820180604052508101906104039190610b34565b905090565b60008060009054906101000a900473ffffffffffffffffffffffffffffffffffffffff1673ffffffffffffffffffffffffffffffffffffffff1663dd62ed3e33306040518363ffffffff1660e01b8152600401610466929190610af6565b602060405180830381865afa158015610483573d6000803e3d6000fd5b505050506040513d601f19601f820116820180604052508101906104a79190610b34565b905090565b8060008054906101000a900473ffffffffffffffffffffffffffffffffffffffff1673ffffffffffffffffffffffffffffffffffffffff166370a08231306040518263ffffffff1660e01b81526004016105069190610ca0565b602060405180830381865afa158015610523573d6000803e3d6000fd5b505050506040513d601f19601f820116820180604052508101906105479190610b34565b1015610588576040517f08c379a000000000000000000000000000000000000000000000000000000000815260040161057f90610d07565b60405180910390fd5b6105918161096e565b34146105d2576040517f08c379a00000000000000000000000000000000000000000000000000000000081526004016105c990610d73565b60405180910390fd5b60008054906101000a900473ffffffffffffffffffffffffffffffffffffffff1673ffffffffffffffffffffffffffffffffffffffff1663a9059cbb33836040518363ffffffff1660e01b815260040161062d929190610d93565b6020604051808303816000875af115801561064c573d6000803e3d6000fd5b505050506040513d601f19601f820116820180604052508101906106709190610bd0565b5050565b60008060009054906101000a900473ffffffffffffffffffffffffffffffffffffffff1673ffffffffffffffffffffffffffffffffffffffff1663dd62ed3e33306040518363ffffffff1660e01b81526004016106d2929190610af6565b602060405180830381865afa1580156106ef573d6000803e3d6000fd5b505050506040513d601f19601f820116820180604052508101906107139190610b34565b90508160008054906101000a900473ffffffffffffffffffffffffffffffffffffffff1673ffffffffffffffffffffffffffffffffffffffff166370a08231336040518263ffffffff1660e01b815260040161076f9190610ca0565b602060405180830381865afa15801561078c573d6000803e3d6000fd5b505050506040513d601f19601f820116820180604052508101906107b09190610b34565b10156107f1576040517f08c379a00000000000000000000000000000000000000000000000000000000081526004016107e890610e2e565b60405180910390fd5b818114610833576040517f08c379a000000000000000000000000000000000000000000000000000000000815260040161082a90610ee6565b60405180910390fd5b60008060009054906101000a900473ffffffffffffffffffffffffffffffffffffffff1673ffffffffffffffffffffffffffffffffffffffff166323b872dd3330856040518463ffffffff1660e01b815260040161089393929190610b61565b6020604051808303816000875af11580156108b2573d6000803e3d6000fd5b505050506040513d601f19601f820116820180604052508101906108d69190610bd0565b9050806108e6576108e5610f06565b5b60003373ffffffffffffffffffffffffffffffffffffffff166109088561096e565b60405161091490610f66565b60006040518083038185875af1925050503d8060008114610951576040519150601f19603f3d011682016040523d82523d6000602084013e610956565b606091505b505090508061096857610967610f06565b5b50505050565b60006001548261097e9190610faa565b9050919050565b60008054906101000a900473ffffffffffffffffffffffffffffffffffffffff1681565b6000819050919050565b6109bc816109a9565b82525050565b60006020820190506109d760008301846109b3565b92915050565b600080fd5b6109eb816109a9565b81146109f657600080fd5b50565b600081359050610a08816109e2565b92915050565b600060208284031215610a2457610a236109dd565b5b6000610a32848285016109f9565b91505092915050565b600073ffffffffffffffffffffffffffffffffffffffff82169050919050565b6000819050919050565b6000610a80610a7b610a7684610a3b565b610a5b565b610a3b565b9050919050565b6000610a9282610a65565b9050919050565b6000610aa482610a87565b9050919050565b610ab481610a99565b82525050565b6000602082019050610acf6000830184610aab565b92915050565b6000610ae082610a3b565b9050919050565b610af081610ad5565b82525050565b6000604082019050610b0b6000830185610ae7565b610b186020830184610ae7565b9392505050565b600081519050610b2e816109e2565b92915050565b600060208284031215610b4a57610b496109dd565b5b6000610b5884828501610b1f565b91505092915050565b6000606082019050610b766000830186610ae7565b610b836020830185610ae7565b610b9060408301846109b3565b949350505050565b60008115159050919050565b610bad81610b98565b8114610bb857600080fd5b50565b600081519050610bca81610ba4565b92915050565b600060208284031215610be657610be56109dd565b5b6000610bf484828501610bbb565b91505092915050565b600082825260208201905092915050565b7f4661696c656420746f2073656e6420746f6b656e7320746f207468652065786360008201527f68616e6765000000000000000000000000000000000000000000000000000000602082015250565b6000610c6a602583610bfd565b9150610c7582610c0e565b604082019050919050565b60006020820190508181036000830152610c9981610c5d565b9050919050565b6000602082019050610cb56000830184610ae7565b92915050565b7f4e6f7420656e6f75676820746f6b656e73206c6566742e000000000000000000600082015250565b6000610cf1601783610bfd565b9150610cfc82610cbb565b602082019050919050565b60006020820190508181036000830152610d2081610ce4565b9050919050565b7f496e737566666963656e742066756e64732e0000000000000000000000000000600082015250565b6000610d5d601283610bfd565b9150610d6882610d27565b602082019050919050565b60006020820190508181036000830152610d8c81610d50565b9050919050565b6000604082019050610da86000830185610ae7565b610db560208301846109b3565b9392505050565b7f596f7520646f6e277420686176652074686174206d616e7920746f6b656e732060008201527f746f2073656c6c2e000000000000000000000000000000000000000000000000602082015250565b6000610e18602883610bfd565b9150610e2382610dbc565b604082019050919050565b60006020820190508181036000830152610e4781610e0b565b9050919050565b7f596f75206469646e2774207065726d6974207468652065786368616e6765207460008201527f6f2074616b652074686973206d616e7920746f6b656e732066726f6d20796f7560208201527f2e00000000000000000000000000000000000000000000000000000000000000604082015250565b6000610ed0604183610bfd565b9150610edb82610e4e565b606082019050919050565b60006020820190508181036000830152610eff81610ec3565b9050919050565b7f4e487b7100000000000000000000000000000000000000000000000000000000600052600160045260246000fd5b600081905092915050565b50565b6000610f50600083610f35565b9150610f5b82610f40565b600082019050919050565b6000610f7182610f43565b9150819050919050565b7f4e487b7100000000000000000000000000000000000000000000000000000000600052601160045260246000fd5b6000610fb5826109a9565b9150610fc0836109a9565b9250828202610fce816109a9565b91508282048414831517610fe557610fe4610f7b565b5b509291505056fea2646970667358221220e13f6d412f8e0f1b438534dd631cc03bf6234920b7db70882cbc22ccf7f2bc3964736f6c63430008110033",
  "linkReferences": {},
  "deployedLinkReferences": {}
}