{
  "_format": "hh-sol-artifact-1",
  "contractName": "Exchange",
  "sourceName": "contracts/Exchange.sol",
  "abi": [
    {
      "inputs": [
        {
          "internalType": "contract IERC20",
          "name": "_token",
          "type": "address"
        },
        {
          "internalType": "uint256",
          "name": "_price",
          "type": "uint256"
        }
      ],
      "stateMutability": "nonpayable",
      "type": "constructor"
    },
    {
      "inputs": [
        {
          "internalType": "uint256",
          "name": "amount",
          "type": "uint256"
        }
      ],
      "name": "buy",
      "outputs": [],
      "stateMutability": "payable",
      "type": "function"
    },
    {
      "inputs": [],
      "name": "giveExchangeTokens",
      "outputs": [],
      "stateMutability": "nonpayable",
      "type": "function"
    },
    {
      "inputs": [
        {
          "internalType": "uint256",
          "name": "amount",
          "type": "uint256"
        }
      ],
      "name": "sell",
      "outputs": [],
      "stateMutability": "payable",
      "type": "function"
    },
    {
      "inputs": [],
      "name": "token",
      "outputs": [
        {
          "internalType": "contract IERC20",
          "name": "",
          "type": "address"
        }
      ],
      "stateMutability": "view",
      "type": "function"
    },
    {
      "inputs": [],
      "name": "viewApproved",
      "outputs": [
        {
          "internalType": "uint256",
          "name": "",
          "type": "uint256"
        }
      ],
      "stateMutability": "view",
      "type": "function"
    },
    {
      "inputs": [],
      "name": "viewBalance",
      "outputs": [
        {
          "internalType": "uint256",
          "name": "",
          "type": "uint256"
        }
      ],
      "stateMutability": "view",
      "type": "function"
    },
    {
      "inputs": [
        {
          "internalType": "uint256",
          "name": "amount",
          "type": "uint256"
        }
      ],
      "name": "viewPrice",
      "outputs": [
        {
          "internalType": "uint256",
          "name": "",
          "type": "uint256"
        }
      ],
      "stateMutability": "view",
      "type": "function"
    }
  ],
  "bytecode": "0x60806040523480156200001157600080fd5b506040516200112238038062001122833981810160405281019062000037919062000180565b816000806101000a81548173ffffffffffffffffffffffffffffffffffffffff021916908373ffffffffffffffffffffffffffffffffffffffff1602179055508060018190555033600260006101000a81548173ffffffffffffffffffffffffffffffffffffffff021916908373ffffffffffffffffffffffffffffffffffffffff1602179055505050620001c7565b600080fd5b600073ffffffffffffffffffffffffffffffffffffffff82169050919050565b6000620000f982620000cc565b9050919050565b60006200010d82620000ec565b9050919050565b6200011f8162000100565b81146200012b57600080fd5b50565b6000815190506200013f8162000114565b92915050565b6000819050919050565b6200015a8162000145565b81146200016657600080fd5b50565b6000815190506200017a816200014f565b92915050565b600080604083850312156200019a5762000199620000c7565b5b6000620001aa858286016200012e565b9250506020620001bd8582860162000169565b9150509250929050565b610f4b80620001d76000396000f3fe6080604052600436106100705760003560e01c8063d96a094a1161004e578063d96a094a146100e2578063e4849b32146100fe578063e865579f1461011a578063fc0c546a1461015757610070565b80633aebbd98146100755780633ff1e05b1461008c578063c3e586de146100b7575b600080fd5b34801561008157600080fd5b5061008a610182565b005b34801561009857600080fd5b506100a1610321565b6040516100ae919061097d565b60405180910390f35b3480156100c357600080fd5b506100cc6103c3565b6040516100d9919061097d565b60405180910390f35b6100fc60048036038101906100f791906109c9565b610467565b005b610118600480360381019061011391906109c9565b61062f565b005b34801561012657600080fd5b50610141600480360381019061013c91906109c9565b610929565b60405161014e919061097d565b60405180910390f35b34801561016357600080fd5b5061016c610940565b6040516101799190610a75565b60405180910390f35b600260009054906101000a900473ffffffffffffffffffffffffffffffffffffffff1673ffffffffffffffffffffffffffffffffffffffff163373ffffffffffffffffffffffffffffffffffffffff16146101dc57600080fd5b60008060009054906101000a900473ffffffffffffffffffffffffffffffffffffffff1673ffffffffffffffffffffffffffffffffffffffff1663dd62ed3e33306040518363ffffffff1660e01b815260040161023a929190610ab1565b602060405180830381865afa158015610257573d6000803e3d6000fd5b505050506040513d601f19601f8201168201806040525081019061027b9190610aef565b905060008054906101000a900473ffffffffffffffffffffffffffffffffffffffff1673ffffffffffffffffffffffffffffffffffffffff166323b872dd3330846040518463ffffffff1660e01b81526004016102da93929190610b1c565b6020604051808303816000875af11580156102f9573d6000803e3d6000fd5b505050506040513d601f19601f8201168201806040525081019061031d9190610b8b565b5050565b60008060009054906101000a900473ffffffffffffffffffffffffffffffffffffffff1673ffffffffffffffffffffffffffffffffffffffff166370a08231336040518263ffffffff1660e01b815260040161037d9190610bb8565b602060405180830381865afa15801561039a573d6000803e3d6000fd5b505050506040513d601f19601f820116820180604052508101906103be9190610aef565b905090565b60008060009054906101000a900473ffffffffffffffffffffffffffffffffffffffff1673ffffffffffffffffffffffffffffffffffffffff1663dd62ed3e33306040518363ffffffff1660e01b8152600401610421929190610ab1565b602060405180830381865afa15801561043e573d6000803e3d6000fd5b505050506040513d601f19601f820116820180604052508101906104629190610aef565b905090565b8060008054906101000a900473ffffffffffffffffffffffffffffffffffffffff1673ffffffffffffffffffffffffffffffffffffffff166370a08231306040518263ffffffff1660e01b81526004016104c19190610bb8565b602060405180830381865afa1580156104de573d6000803e3d6000fd5b505050506040513d601f19601f820116820180604052508101906105029190610aef565b1015610543576040517f08c379a000000000000000000000000000000000000000000000000000000000815260040161053a90610c30565b60405180910390fd5b61054c81610929565b341461058d576040517f08c379a000000000000000000000000000000000000000000000000000000000815260040161058490610c9c565b60405180910390fd5b60008054906101000a900473ffffffffffffffffffffffffffffffffffffffff1673ffffffffffffffffffffffffffffffffffffffff1663a9059cbb33836040518363ffffffff1660e01b81526004016105e8929190610cbc565b6020604051808303816000875af1158015610607573d6000803e3d6000fd5b505050506040513d601f19601f8201168201806040525081019061062b9190610b8b565b5050565b60008060009054906101000a900473ffffffffffffffffffffffffffffffffffffffff1673ffffffffffffffffffffffffffffffffffffffff1663dd62ed3e33306040518363ffffffff1660e01b815260040161068d929190610ab1565b602060405180830381865afa1580156106aa573d6000803e3d6000fd5b505050506040513d601f19601f820116820180604052508101906106ce9190610aef565b90508160008054906101000a900473ffffffffffffffffffffffffffffffffffffffff1673ffffffffffffffffffffffffffffffffffffffff166370a08231336040518263ffffffff1660e01b815260040161072a9190610bb8565b602060405180830381865afa158015610747573d6000803e3d6000fd5b505050506040513d601f19601f8201168201806040525081019061076b9190610aef565b10156107ac576040517f08c379a00000000000000000000000000000000000000000000000000000000081526004016107a390610d57565b60405180910390fd5b8181146107ee576040517f08c379a00000000000000000000000000000000000000000000000000000000081526004016107e590610e0f565b60405180910390fd5b60008060009054906101000a900473ffffffffffffffffffffffffffffffffffffffff1673ffffffffffffffffffffffffffffffffffffffff166323b872dd3330856040518463ffffffff1660e01b815260040161084e93929190610b1c565b6020604051808303816000875af115801561086d573d6000803e3d6000fd5b505050506040513d601f19601f820116820180604052508101906108919190610b8b565b9050806108a1576108a0610e2f565b5b60003373ffffffffffffffffffffffffffffffffffffffff166108c385610929565b6040516108cf90610e8f565b60006040518083038185875af1925050503d806000811461090c576040519150601f19603f3d011682016040523d82523d6000602084013e610911565b606091505b505090508061092357610922610e2f565b5b50505050565b6000600154826109399190610ed3565b9050919050565b60008054906101000a900473ffffffffffffffffffffffffffffffffffffffff1681565b6000819050919050565b61097781610964565b82525050565b6000602082019050610992600083018461096e565b92915050565b600080fd5b6109a681610964565b81146109b157600080fd5b50565b6000813590506109c38161099d565b92915050565b6000602082840312156109df576109de610998565b5b60006109ed848285016109b4565b91505092915050565b600073ffffffffffffffffffffffffffffffffffffffff82169050919050565b6000819050919050565b6000610a3b610a36610a31846109f6565b610a16565b6109f6565b9050919050565b6000610a4d82610a20565b9050919050565b6000610a5f82610a42565b9050919050565b610a6f81610a54565b82525050565b6000602082019050610a8a6000830184610a66565b92915050565b6000610a9b826109f6565b9050919050565b610aab81610a90565b82525050565b6000604082019050610ac66000830185610aa2565b610ad36020830184610aa2565b9392505050565b600081519050610ae98161099d565b92915050565b600060208284031215610b0557610b04610998565b5b6000610b1384828501610ada565b91505092915050565b6000606082019050610b316000830186610aa2565b610b3e6020830185610aa2565b610b4b604083018461096e565b949350505050565b60008115159050919050565b610b6881610b53565b8114610b7357600080fd5b50565b600081519050610b8581610b5f565b92915050565b600060208284031215610ba157610ba0610998565b5b6000610baf84828501610b76565b91505092915050565b6000602082019050610bcd6000830184610aa2565b92915050565b600082825260208201905092915050565b7f4e6f7420656e6f75676820746f6b656e73206c6566742e000000000000000000600082015250565b6000610c1a601783610bd3565b9150610c2582610be4565b602082019050919050565b60006020820190508181036000830152610c4981610c0d565b9050919050565b7f496e737566666963656e742066756e64732e0000000000000000000000000000600082015250565b6000610c86601283610bd3565b9150610c9182610c50565b602082019050919050565b60006020820190508181036000830152610cb581610c79565b9050919050565b6000604082019050610cd16000830185610aa2565b610cde602083018461096e565b9392505050565b7f596f7520646f6e277420686176652074686174206d616e7920746f6b656e732060008201527f746f2073656c6c2e000000000000000000000000000000000000000000000000602082015250565b6000610d41602883610bd3565b9150610d4c82610ce5565b604082019050919050565b60006020820190508181036000830152610d7081610d34565b9050919050565b7f596f75206469646e2774207065726d6974207468652065786368616e6765207460008201527f6f2074616b652074686973206d616e7920746f6b656e732066726f6d20796f7560208201527f2e00000000000000000000000000000000000000000000000000000000000000604082015250565b6000610df9604183610bd3565b9150610e0482610d77565b606082019050919050565b60006020820190508181036000830152610e2881610dec565b9050919050565b7f4e487b7100000000000000000000000000000000000000000000000000000000600052600160045260246000fd5b600081905092915050565b50565b6000610e79600083610e5e565b9150610e8482610e69565b600082019050919050565b6000610e9a82610e6c565b9150819050919050565b7f4e487b7100000000000000000000000000000000000000000000000000000000600052601160045260246000fd5b6000610ede82610964565b9150610ee983610964565b9250828202610ef781610964565b91508282048414831517610f0e57610f0d610ea4565b5b509291505056fea26469706673582212204e6c88dae17cfdb98bd757abe0ee068999c6eb96d65cf695a616c7899e677d5664736f6c63430008110033",
  "linkReferences": {},
  "deployedLinkReferences": {}
}