{
  "_format": "hh-sol-artifact-1",
  "contractName": "Exchange",
  "sourceName": "contracts/Exchange.sol",
  "abi": [
    {
      "inputs": [
        {
          "internalType": "contract IERC20",
          "name": "_token",
          "type": "address"
        },
        {
          "internalType": "uint256",
          "name": "_price",
          "type": "uint256"
        }
      ],
      "stateMutability": "nonpayable",
      "type": "constructor"
    },
    {
      "inputs": [
        {
          "internalType": "uint256",
          "name": "amount",
          "type": "uint256"
        }
      ],
      "name": "buy",
      "outputs": [],
      "stateMutability": "payable",
      "type": "function"
    },
    {
      "inputs": [
        {
          "internalType": "uint256",
          "name": "amount",
          "type": "uint256"
        }
      ],
      "name": "sell",
      "outputs": [],
      "stateMutability": "payable",
      "type": "function"
    },
    {
      "inputs": [],
      "name": "token",
      "outputs": [
        {
          "internalType": "contract IERC20",
          "name": "",
          "type": "address"
        }
      ],
      "stateMutability": "view",
      "type": "function"
    },
    {
      "inputs": [],
      "name": "viewApproved",
      "outputs": [
        {
          "internalType": "uint256",
          "name": "",
          "type": "uint256"
        }
      ],
      "stateMutability": "view",
      "type": "function"
    },
    {
      "inputs": [],
      "name": "viewBalance",
      "outputs": [
        {
          "internalType": "uint256",
          "name": "",
          "type": "uint256"
        }
      ],
      "stateMutability": "view",
      "type": "function"
    },
    {
      "inputs": [
        {
          "internalType": "uint256",
          "name": "amount",
          "type": "uint256"
        }
      ],
      "name": "viewPrice",
      "outputs": [
        {
          "internalType": "uint256",
          "name": "",
          "type": "uint256"
        }
      ],
      "stateMutability": "view",
      "type": "function"
    }
  ],
  "bytecode": "0x60806040523480156200001157600080fd5b5060405162000f1038038062000f1083398181016040528101906200003791906200013f565b816000806101000a81548173ffffffffffffffffffffffffffffffffffffffff021916908373ffffffffffffffffffffffffffffffffffffffff16021790555080600181905550505062000186565b600080fd5b600073ffffffffffffffffffffffffffffffffffffffff82169050919050565b6000620000b8826200008b565b9050919050565b6000620000cc82620000ab565b9050919050565b620000de81620000bf565b8114620000ea57600080fd5b50565b600081519050620000fe81620000d3565b92915050565b6000819050919050565b620001198162000104565b81146200012557600080fd5b50565b60008151905062000139816200010e565b92915050565b6000806040838503121562000159576200015862000086565b5b60006200016985828601620000ed565b92505060206200017c8582860162000128565b9150509250929050565b610d7a80620001966000396000f3fe6080604052600436106100555760003560e01c80633ff1e05b1461005a578063c3e586de14610085578063d96a094a146100b0578063e4849b32146100cc578063e865579f146100e8578063fc0c546a14610125575b600080fd5b34801561006657600080fd5b5061006f610150565b60405161007c91906107ac565b60405180910390f35b34801561009157600080fd5b5061009a6101f2565b6040516100a791906107ac565b60405180910390f35b6100ca60048036038101906100c591906107f8565b610296565b005b6100e660048036038101906100e191906107f8565b61045e565b005b3480156100f457600080fd5b5061010f600480360381019061010a91906107f8565b610758565b60405161011c91906107ac565b60405180910390f35b34801561013157600080fd5b5061013a61076f565b60405161014791906108a4565b60405180910390f35b60008060009054906101000a900473ffffffffffffffffffffffffffffffffffffffff1673ffffffffffffffffffffffffffffffffffffffff166370a08231336040518263ffffffff1660e01b81526004016101ac91906108e0565b602060405180830381865afa1580156101c9573d6000803e3d6000fd5b505050506040513d601f19601f820116820180604052508101906101ed9190610910565b905090565b60008060009054906101000a900473ffffffffffffffffffffffffffffffffffffffff1673ffffffffffffffffffffffffffffffffffffffff1663dd62ed3e33306040518363ffffffff1660e01b815260040161025092919061093d565b602060405180830381865afa15801561026d573d6000803e3d6000fd5b505050506040513d601f19601f820116820180604052508101906102919190610910565b905090565b8060008054906101000a900473ffffffffffffffffffffffffffffffffffffffff1673ffffffffffffffffffffffffffffffffffffffff166370a08231306040518263ffffffff1660e01b81526004016102f091906108e0565b602060405180830381865afa15801561030d573d6000803e3d6000fd5b505050506040513d601f19601f820116820180604052508101906103319190610910565b1015610372576040517f08c379a0000000000000000000000000000000000000000000000000000000008152600401610369906109c3565b60405180910390fd5b61037b81610758565b34146103bc576040517f08c379a00000000000000000000000000000000000000000000000000000000081526004016103b390610a2f565b60405180910390fd5b60008054906101000a900473ffffffffffffffffffffffffffffffffffffffff1673ffffffffffffffffffffffffffffffffffffffff1663a9059cbb33836040518363ffffffff1660e01b8152600401610417929190610a4f565b6020604051808303816000875af1158015610436573d6000803e3d6000fd5b505050506040513d601f19601f8201168201806040525081019061045a9190610ab0565b5050565b60008060009054906101000a900473ffffffffffffffffffffffffffffffffffffffff1673ffffffffffffffffffffffffffffffffffffffff1663dd62ed3e33306040518363ffffffff1660e01b81526004016104bc92919061093d565b602060405180830381865afa1580156104d9573d6000803e3d6000fd5b505050506040513d601f19601f820116820180604052508101906104fd9190610910565b90508160008054906101000a900473ffffffffffffffffffffffffffffffffffffffff1673ffffffffffffffffffffffffffffffffffffffff166370a08231336040518263ffffffff1660e01b815260040161055991906108e0565b602060405180830381865afa158015610576573d6000803e3d6000fd5b505050506040513d601f19601f8201168201806040525081019061059a9190610910565b10156105db576040517f08c379a00000000000000000000000000000000000000000000000000000000081526004016105d290610b4f565b60405180910390fd5b81811461061d576040517f08c379a000000000000000000000000000000000000000000000000000000000815260040161061490610c07565b60405180910390fd5b60008060009054906101000a900473ffffffffffffffffffffffffffffffffffffffff1673ffffffffffffffffffffffffffffffffffffffff166323b872dd3330856040518463ffffffff1660e01b815260040161067d93929190610c27565b6020604051808303816000875af115801561069c573d6000803e3d6000fd5b505050506040513d601f19601f820116820180604052508101906106c09190610ab0565b9050806106d0576106cf610c5e565b5b60003373ffffffffffffffffffffffffffffffffffffffff166106f285610758565b6040516106fe90610cbe565b60006040518083038185875af1925050503d806000811461073b576040519150601f19603f3d011682016040523d82523d6000602084013e610740565b606091505b505090508061075257610751610c5e565b5b50505050565b6000600154826107689190610d02565b9050919050565b60008054906101000a900473ffffffffffffffffffffffffffffffffffffffff1681565b6000819050919050565b6107a681610793565b82525050565b60006020820190506107c1600083018461079d565b92915050565b600080fd5b6107d581610793565b81146107e057600080fd5b50565b6000813590506107f2816107cc565b92915050565b60006020828403121561080e5761080d6107c7565b5b600061081c848285016107e3565b91505092915050565b600073ffffffffffffffffffffffffffffffffffffffff82169050919050565b6000819050919050565b600061086a61086561086084610825565b610845565b610825565b9050919050565b600061087c8261084f565b9050919050565b600061088e82610871565b9050919050565b61089e81610883565b82525050565b60006020820190506108b96000830184610895565b92915050565b60006108ca82610825565b9050919050565b6108da816108bf565b82525050565b60006020820190506108f560008301846108d1565b92915050565b60008151905061090a816107cc565b92915050565b600060208284031215610926576109256107c7565b5b6000610934848285016108fb565b91505092915050565b600060408201905061095260008301856108d1565b61095f60208301846108d1565b9392505050565b600082825260208201905092915050565b7f4e6f7420656e6f75676820746f6b656e73206c6566742e000000000000000000600082015250565b60006109ad601783610966565b91506109b882610977565b602082019050919050565b600060208201905081810360008301526109dc816109a0565b9050919050565b7f496e737566666963656e742066756e64732e0000000000000000000000000000600082015250565b6000610a19601283610966565b9150610a24826109e3565b602082019050919050565b60006020820190508181036000830152610a4881610a0c565b9050919050565b6000604082019050610a6460008301856108d1565b610a71602083018461079d565b9392505050565b60008115159050919050565b610a8d81610a78565b8114610a9857600080fd5b50565b600081519050610aaa81610a84565b92915050565b600060208284031215610ac657610ac56107c7565b5b6000610ad484828501610a9b565b91505092915050565b7f596f7520646f6e277420686176652074686174206d616e7920746f6b656e732060008201527f746f2073656c6c2e000000000000000000000000000000000000000000000000602082015250565b6000610b39602883610966565b9150610b4482610add565b604082019050919050565b60006020820190508181036000830152610b6881610b2c565b9050919050565b7f596f75206469646e2774207065726d6974207468652065786368616e6765207460008201527f6f2074616b652074686973206d616e7920746f6b656e732066726f6d20796f7560208201527f2e00000000000000000000000000000000000000000000000000000000000000604082015250565b6000610bf1604183610966565b9150610bfc82610b6f565b606082019050919050565b60006020820190508181036000830152610c2081610be4565b9050919050565b6000606082019050610c3c60008301866108d1565b610c4960208301856108d1565b610c56604083018461079d565b949350505050565b7f4e487b7100000000000000000000000000000000000000000000000000000000600052600160045260246000fd5b600081905092915050565b50565b6000610ca8600083610c8d565b9150610cb382610c98565b600082019050919050565b6000610cc982610c9b565b9150819050919050565b7f4e487b7100000000000000000000000000000000000000000000000000000000600052601160045260246000fd5b6000610d0d82610793565b9150610d1883610793565b9250828202610d2681610793565b91508282048414831517610d3d57610d3c610cd3565b5b509291505056fea264697066735822122042f2af4da700fc9bd08725f9d8759df1f2c4b08870035db5ed82e66bff14409c64736f6c63430008110033",
  "linkReferences": {},
  "deployedLinkReferences": {}
}